:1000000018C1000047C1000045C1000043C1000005
:1000100041C100003FC100003DC100003BC10000E4
:1000200039C100000C945B090C945B090C945B09CA
:1000300031C100002FC100002DC100002BC1000004
:1000400029C1000027C1000025C1000023C1000014
:1000500021C100001FC100001DC100000C948F08C9
:1000600019C1000050C7000025C7000013C10000DF
:1000700011C100000FC100000DC100000BC1000044
:1000800009C1000007C1000005C1000003C1000054
:1000900001C10000FFC00000FDC00000FBC0000067
:1000A000F9C00000F7C00000F5C00000F3C0000078
:1000B000F1C00000EFC00000EDC00000EBC0000088
:1000C000E9C00000E7C00000E5C00000E3C0000098
:1000D000E1C00000DFC00000DDC00000DBC00000A8
:1000E000D9C0000039063C062B062F0635067306DC
:1000F000400644064A064E06520658065C0660064E
:10010000730666066A066E060000210024002700BA
:100110002A002D0030003300010100000401070116
:100120000A01000102030405000022002500280046
:100130002B002E00310034000201000005010801EF
:100140000B01000020002300260029002C002F00B6
:100150003200000100000301060109010505050543
:10016000070508080808020202020A0A080804042F
:10017000040401010101010101010303030303035D
:100180000303040707070C0C0C0C0C0C0C0C0202EC
:10019000020206060606060606060B0B0B0B0B0BE9
:1001A0000B0B010210202008081020401020408076
:1001B000020102010804020101020408102040802B
:1001C00080402010080402018004020180402010B9
:1001D0000804020108040201010204081020408002
:1001E000010204081020408000000A0B02090C0DD7
:1001F0000E080703040100000000000000000000DA
:1002000000000000000000000000000000000000EE
:1002100000000000121110000000000000000000AB
:100220000000000000000000000000000000CA0FF5
:10023000CB1011241FBECFEFD1E2DEBFCDBF00E057
:100240000CBF15E0A0E0B2E0EEE7FAE200E00BBF81
:1002500002C007900D92A035B107D9F726E0A0E5BE
:10026000B5E001C01D92A138B207E1F711E0C8E185
:10027000D1E000E006C021970109802FFE010E9415
:10028000DF14C731D10780E00807A9F70E94350BBA
:100290000C942E15B5CE009769F0FC01019000205A
:1002A000E9F73197AF01481B590BBC018DE595E08B
:1002B0000C94010A80E090E008958AED93E0EBCF82
:1002C000EACFAF92BF92CF92DF92EF92FF920F935D
:1002D0001F93CF93DF93CDB7DEB760970FB6F89437
:1002E000DEBF0FBECDBF7C018DED93E0E9DF87015E
:1002F00057018CE0A80EB11C8FEDC82E83E0D82EDC
:10030000FE0131967F01F80181918F011F928F9339
:10031000DF92CF92FF92EF920E94FF14C701D0DFCD
:100320000F900F900F900F900F900F900A151B05D4
:1003300021F080E894E0C4DFE6CF8DED93E0C0DFEC
:1003400060960FB6F894DEBF0FBECDBFDF91CF91A0
:100350001F910F91FF90EF90DF90CF90BF90AF90E3
:1003600008958F929F92AF92BF920F931F93CF9356
:10037000DF93CDB7DEB7A1970FB6F894DEBF0FBEFF
:10038000CDBF19A2423008F44AE08E010F5D1F4F25
:10039000842E912CA12CB12CA50194010E94BD1496
:1003A000E62FB901CA0101501109EA3014F4E05DE9
:1003B00001C0E95CD801EC93232B242B252B61F79A
:1003C000C80169DFA1960FB6F894DEBF0FBECDBF9E
:1003D000DF91CF911F910F91BF90AF909F908F9021
:1003E00008956F927F928F929F92AF92BF92CF9219
:1003F000DF92EF92FF920F931F93CF93DF938DEFD6
:1004000095E0D7D78DEF95E018D5182F8535D1F722
:100410008CE090E00E94D1126C01EC0119935C0118
:100420008CE0A80EB11C8DEF95E0F0D4892B31F44F
:100430006AE070E080E090E03AD6F5CF8DEF95E08D
:10044000FCD48993CA15DB0571F785E190E00E9421
:10045000D112EC01F090FA05EF2C04EE13E025E543
:1004600045E5D6016C91ACD609EF13E02AEA4AEAD9
:10047000F6016181CE01A4D60EE014E021E041E056
:10048000D60112966C91CE019BD602E214E020E0D8
:1004900040E0F6016381CE0193D6D60118967C9098
:1004A00006E314E021E340E3672DCE0189D6B0E3F3
:1004B0007B1203C081E08C8B01C01C8AF601618431
:1004C000EF2C01E414E020E040E0662DCE0178D668
:1004D0004601C6010A96F601A12CB12C2191A20E6B
:1004E000B11CE817F907D1F7EF2C0DE414E02A2D21
:1004F0004A2DD6011A966C91CE0162D60AE514E017
:100500002B2D4B2DF6016385CE015AD6D6011496BC
:100510008C91149715969C91992359F0833148F446
:10052000E82FF0E0EE0FFF1FEB5EFD4F20813181E1
:1005300002C02FEF3FEF398328838E879F87F60114
:100540008681888B8781898B7A8A6B8AFE013296B5
:10055000CE010E96FE2E1F2FD4012D914D01219319
:10056000E817F907C9F7C6010E9466138091FA05DA
:10057000882341F088E694E0A3DE8F2D912FA1DE41
:100580009CDE9BDECE01DF91CF911F910F91FF90FA
:10059000EF90DF90CF90BF90AF909F908F907F9023
:1005A0006F900895CF93DF93EC014CE050E0BC01D5
:1005B0008DEF95E026D78091FA05882341F085E7F5
:1005C00094E07EDECE017DDEDF91CF9176CEDF91AD
:1005D000CF910895CF93DF935EDEEC016EDE8C0F3A
:1005E0009D1FDF91CF9108950F931F93CF93DF93BA
:1005F000182F88E090E00E94D112EC0182E190E097
:10060000998388839091FA05112341F0992319F079
:1006100082E894E0DFDF81E08A8306C0992319F045
:100620008FE894E0D7DF1A821B821C821D82CE01E4
:100630000DD68C01CE010E946613C801B3DFD1DE56
:10064000FC01C4890E946613C8010E9466138C2FA6
:10065000DF91CF911F910F910895CF93DF939CB5B8
:100660009F7D9CBD9CB5937F9CBD9CB59C7F9CBD94
:100670009DB591609DBDCCE1D6E0682F8A81A1D463
:100680008C899D89DF91CF9107C581E0E6CF1F93CB
:10069000CF93DF931F92CDB7DEB7182F80E0698329
:1006A000DCDF812F8F71806284D5182F6981862FBE
:1006B00080D5EBDF812F0F90DF91CF911F910895AF
:1006C0001F93CF93DF931F92CDB7DEB7182F80E033
:1006D000C4DF812F8F716DD58FEF6BD58983D5DF07
:1006E00089810F90DF91CF911F910895CF93DF9370
:1006F0001F92CDB7DEB780E0B0DF81EE5AD5898397
:10070000C4DF89810F90DF91CF91089520911C065D
:1007100030911D0640911E0650911F062417350783
:1007200019F0682F822F4DC40895CF92DF92EF9277
:10073000FF92CF93DF936C01990FEE08FF08F7FE4D
:1007400019C0E0915D05F0915E050190F081E02D0A
:100750006DE28DE595E01995EC0166277727CB01D1
:100760006C197D098E099F094AE0FBDD7C01EC0EC6
:10077000FD1E05C04AE0C701B601F3DD7C019DDD29
:100780008E0D9F1DDF91CF91FF90EF90DF90CF9066
:1007900008950F931F93CF93DF938091FA058823D9
:1007A00019F08DE994E016DF88E090E00E94D11204
:1007B000EC0185E290E099838883CE0147D58C01D6
:1007C000CE010E946613C801EDDEC8010E946613C7
:1007D00008DE8C0130D5883C910514F0D0E001C0D2
:1007E000D3E0C0E0F801848981110DC0808191813E
:1007F0008D30F0E19F0729F08C30904121F4D2E058
:1008000001C0D1E0C0E0C8010E946613F8018489EC
:10081000811103C08D2F9C2F02C080E090E0DF91FA
:10082000CF911F910F9108950F931F93CF93DF9353
:10083000182F8091FA05882319F08BEA94E0CADE1C
:1008400088E090E00E94D112EC0180E690E099836C
:100850008883112319F081E08A8301C01A821B82E8
:100860001C821D82CE01F2D48C01CE010E9466133F
:10087000C80198DEB6DDFC01C4890E946613C80178
:100880000E9466138C2FDF91CF911F910F910895D5
:100890000F931F93CF93DF938091FA05882319F06C
:1008A0008FEB94E097DE88E090E00E94D1128C01FB
:1008B00086E290E0F80191838083C801C7D4EC01FF
:1008C000C8010E946613CE016DDE8BDDFC018685BA
:1008D000278530E0280F311D8089280F311D81893F
:1008E000280F311D11E0232B09F010E0CF010E94E9
:1008F0006613CE010E946613812FDF91CF911F9165
:100900000F9108950F931F93CF93DF938091FA0572
:10091000882319F083ED94E05DDE88E090E00E948A
:10092000D112EC0184E290E099838883CE018ED4C9
:100930008C01CE010E946613C80134DEC8010E94FA
:1009400066134FDD8C0177D4883C910514F0D0E01C
:1009500001C0D3E0C0E0F801848981110DC080811D
:1009600091818D30F0E19F0729F08C30904121F486
:10097000D2E001C0D1E0C0E0C8010E946613F801D6
:100980008489811103C08D2F9C2F02C080E090E0EC
:10099000DF91CF911F910F9108950F931F93CF93E4
:1009A000DF938091FA05882319F081EE94E012DE3E
:1009B00088E090E00E94D112EC0183E290E09983FC
:1009C0008883CE0143D48C01CE010E946613C801F6
:1009D000E9DDC8010E94661304DD8C012CD4883C3B
:1009E000910514F0D0E001C0D3E0C0E0F8018489A3
:1009F00081110DC0808191818D30F0E19F0729F038
:100A00008C30904121F4D2E001C0D1E0C0E0C801B7
:100A10000E946613F8018489811103C08D2F9C2FD9
:100A200002C080E090E0DF91CF911F910F91089577
:100A3000FC01538D448D252F30E0842F90E0821BE4
:100A4000930B541710F0CF96089501970895FC0169
:100A5000918D828D981761F0828DDF01A80FB11DF5
:100A60005D968C91928D9F5F9F73928F90E0089519
:100A70008FEF9FEF0895FC01918D828D981731F0D3
:100A8000828DE80FF11D858D90E008958FEF9FEF27
:100A90000895FC01918D228D892F90E0805C9F4FFD
:100AA000821B91098F73992708958DE595E0F1DFF9
:100AB00021E0892B09F420E0822F0895FC01848D28
:100AC000DF01A80FB11DA35ABF4F2C91848D90E078
:100AD00001968F739927848FA689B7892C93A08953
:100AE000B1898C9180648C93938D848D981306C00A
:100AF0000288F389E02D80818F7D80830895EF92B5
:100B0000FF920F931F93CF93DF93EC0181E0888FC7
:100B10009B8D8C8D981305C0E889F989808185FDAE
:100B200023C0F62E0B8D10E00F5F1F4F0F731127A0
:100B3000E02E8C8DE8120BC00FB607FCFACFE889C7
:100B4000F989808185FFF5CFCE01B8DFF2CF8B8D9B
:100B5000FE01E80FF11DE35AFF4FF0820B8FEA8987
:100B6000FB898081806207C0EE89FF896083E88904
:100B7000F98980818064808381E090E0DF91CF916A
:100B80001F910F91FF90EF900895CF93DF93EC01A9
:100B9000888D8823C1F0EA89FB89808185FD05C0A5
:100BA000A889B9898C9186FD0EC00FB607FCF5CFD8
:100BB000808185FFF2CFA889B9898C9185FFEDCF1F
:100BC000CE017CDFE8CFDF91CF91089580E090E007
:100BD000892B19F06ADF811125C080E090E0892B14
:100BE00041F080E090E0892B21F00E94000081110B
:100BF0001CC080E090E0892B41F080E090E0892BE0
:100C000021F00E940000811113C080E090E0892B48
:100C1000A1F080E090E0892B81F00E94000081111A
:100C20000AC008950E940000D8CF0E940000E1CFC2
:100C30000E940000EACF0C940000089590E0FC01AF
:100C40003197E231F10508F04EC08827EE58FF4F8A
:100C50008F4F0C94DF14809180008F7703C08091B8
:100C600080008F7D80938000089580918000877F31
:100C7000F9CF84B58F7702C084B58F7D84BD089588
:100C80008091B0008F7703C08091B0008F7D8093FA
:100C9000B0000895809190008F7707C080919000F8
:100CA0008F7D03C080919000877F8093900008958E
:100CB0008091A0008F7707C08091A0008F7D03C036
:100CC0008091A000877F8093A000089580912001EB
:100CD0008F7707C0809120018F7D03C08091200114
:100CE000877F8093200108953FB7F894809179061B
:100CF00090917A06A0917B06B0917C0626B5A89BC0
:100D000005C02F3F19F00196A11DB11D3FBFBA2F9D
:100D1000A92F982F8827820F911DA11DB11DBC01FD
:100D2000CD0142E0660F771F881F991F4A95D1F7C2
:100D3000089520917606309177062817390771F4C7
:100D40009091750680917406981741F0E0917506B0
:100D5000F0E0EC5CF94F808190E008958FEF9FEF19
:100D6000089508951F93CF93DF93DC015C962D9136
:100D70003C915D972115310539F481E090E013969F
:100D80009C938E9312973DC05196ED91FC91529792
:100D900050969C915097892F80951FB75E964C91E5
:100DA0005E9741FB772770F941FD6095F89440818B
:100DB000772311F0492B01C048234083E901219793
:100DC000F1F748E0508160FF02C0592B01C0582361
:100DD0005083E9012197F1F76695415099F7772300
:100DE00021F090818923808303C08081982B908398
:100DF0001FBF5C968D919C915D970197F1F721E063
:100E000030E0C901DF91CF911F91089520917606BE
:100E1000309177062817390769F48091740620917C
:100E2000750690E0805C9F4F821B910960E470E042
:100E30000C94AA1480E090E00895209176063091F9
:100E4000770628173907B9F49091750680917406D2
:100E5000981789F0E0917506F0E0EC5CF94F80811D
:100E60002091750630E02F5F3F4F2F73332720937B
:100E7000750690E008958FEF9FEF0895E091760654
:100E8000F0917706E817F90769F4A389B4899C9172
:100E90008589809589238C93109277061092760627
:100EA00081E0089580E00895089580E090E008953D
:100EB0000E94FB141F920F920FB60F9211240BB6D3
:100EC0000F922F933F934F935F936F937F938F93E3
:100ED0009F93AF93BF93EF93FF938DE595E0EEDD86
:100EE000FF91EF91BF91AF919F918F917F916F9102
:100EF0005F914F913F912F910F900BBE0F900FBEBE
:100F00000F901F9018951F920F920FB60F921124F9
:100F10000BB60F922F938F939F93EF93FF93E091D4
:100F20006D05F0916E058081E0917305F091740577
:100F300082FD12C09081809176058F5F8F73209122
:100F40007705821751F0E0917605F0E0E35AFA4F09
:100F5000958F8093760501C08081FF91EF919F91DD
:100F60008F912F910F900BBE0F900FBE0F901F907F
:100F70001895CF93DF93282F30E0F901E851FE4F09
:100F80008491F901EE55FE4FD491F901E45AFE4FD8
:100F9000C491CC2389F0811151DEEC2FF0E0EE0FEB
:100FA000FF1FEE5BFE4FA591B491EC91ED2381E024
:100FB00090E021F480E002C080E090E0DF91CF91EA
:100FC00008951F93CF93DF93282F30E0F901E85164
:100FD000FE4F8491F901EE55FE4FD491F901E45A88
:100FE000FE4FC491CC23C1F0162F811127DEEC2FC8
:100FF000F0E0EE0FFF1FE85DFE4FA591B4918FB7B3
:10100000F894111105C09C91ED2FE095E92302C0E1
:10101000EC91ED2BEC938FBFDF91CF911F91089551
:10102000CF93DF9390E0FC01EE55FE4F2491FC013D
:10103000E45AFE4F8491882361F190E0880F991F54
:10104000FC01E85FFE4FC591D491FC01E85DFE4FC5
:10105000A591B491611109C09FB7F894888120953A
:1010600082238883EC912E230BC0623061F49FB7FA
:10107000F8943881822F809583238883EC912E2BDE
:101080002C939FBF06C08FB7F894E8812E2B28833E
:101090008FBFDF91CF9108958230910538F0880F8E
:1010A000991F880F991F05970197F1F708958F925F
:1010B0009F92AF92BF92CF92DF92EF92FF926B011D
:1010C0007C0112DE4B015C01C114D104E104F10486
:1010D000E9F00ADEDC01CB0188199909AA09BB09EC
:1010E000883E9340A105B10578F321E0C21AD108EA
:1010F000E108F10888EE880E83E0981EA11CB11C5F
:10110000C114D104E104F10421F7DECFFF90EF9088
:10111000DF90CF90BF90AF909F908F9008951F92D7
:101120000F920FB60F9211242F933F938F939F939B
:10113000AF93BF938091500590915105A0915205B6
:10114000B09153053091780623E0230F2D3720F41A
:101150000196A11DB11D05C026E8230F0296A11D11
:10116000B11D209378068093500590935105A0936C
:101170005205B09353058091790690917A06A0911B
:101180007B06B0917C060196A11DB11D8093790666
:1011900090937A06A0937B06B0937C06BF91AF91A3
:1011A0009F918F913F912F910F900FBE0F901F90A5
:1011B00018958EBD00000DB407FEFDCF8EB50895C5
:1011C000EF92FF920F931F93CF93DF93641711F069
:1011D000621302C080E028C0EE2029F17801D22FEE
:1011E000142FC62F8FEE94E06BD8C70169D880E822
:1011F00094E066D8612F70E080E090E040E1B1D8E3
:101200008EE095E05DD86D2F70E080E090E040E1E9
:10121000A8D883E195E054D86C2F70E080E090E08E
:1012200040E19FD84AD881E0DF91CF911F910F9183
:10123000FF90EF900895FC01278530E0322F2227A0
:101240008685A901480F511DCA0108950F931F9368
:10125000CF93DF93EC018CE090E00E94D112FC016F
:10126000288189812E83082F10E08F836A815B811A
:101270004C813D81C801860F911D9395850F911D6D
:10128000840F911D830F911D820F911D75E5708351
:101290007AEA718371E07283138264835583468393
:1012A00037832087018782879387CF01DF91CF9192
:1012B0001F910F9108951F920F920FB60F92112454
:1012C0000BB60F922F933F934F935F936F937F9340
:1012D0008F939F93AF93BF93EF93FF93E091760625
:1012E000F0917706309709F451C0968DA685B785A1
:1012F000858591FF04C09C91892329F447C09C9166
:10130000892309F043C0A389B4899C91858980957C
:1013100089238C93868997890197F1F7608D718D68
:10132000A685B785558538E020E0CB010197F1F718
:10133000822F90E095958795282F4C91452309F0B1
:101340002068315091F7868D81FD2095809174063B
:1013500090E001968F73992730917506381749F000
:10136000A0917406B0E0AC5CB94F2C9380937406E6
:1013700003C0868D8160868F828D938D0197F1F7F2
:10138000A389B4899C918589892B8C93FF91EF91D6
:10139000BF91AF919F918F917F916F915F914F918D
:1013A0003F912F910F900BBE0F900FBE0F901F908B
:1013B0001895CF93DF93EC018A8D9B8D892BE9F0F3
:1013C00080917606909177068C179D07B1F0009773
:1013D00009F054DD8E8D8E7F8E8F109274061092E0
:1013E0007506D0937706C0937606EB89FC899081C9
:1013F0008D89892B808381E001C080E0DF91CF91CE
:101400000895CF92DF92EF92FF920F931F93CF93A5
:10141000DF936C017A018B01C0E0D0E0CE15DF05CF
:1014200089F0D8016D918D01D601ED91FC9101906B
:10143000F081E02DC6011995892B11F47E0102C0BF
:101440002196ECCFC701DF91CF911F910F91FF90B3
:10145000EF90DF90CF9008950F931F93CF93DF937A
:101460008C018091FA05882319F088E195E0B2D8C3
:1014700088E090E00E94D112EC0182E290E0998332
:1014800088830A831B83C801110FAA0BBB0BBC8383
:10149000BD83CE01DBDE8C01CE010E946613C80144
:1014A00081D8C8010E9466130E94F101FC012489C1
:1014B000211116C0208131812930F0E13F0751F020
:1014C000233040E1340749F02530304149F4C3E08E
:1014D000D0E008C0C1E0D0E005C0C2E0D0E002C06A
:1014E000C0E0D0E00E946613CE01DF91CF911F9142
:1014F0000F9108950F931F93CF93DF938C018091E9
:10150000FA05882319F08AE295E064D888E090E033
:101510000E94D112EC0181E290E0998388830A83D2
:101520001B83C801110FAA0BBB0BBC83BD83CE016B
:101530008DDE8C01CE010E946613C80133D8C8012C
:101540000E9466130E94F101FC01C4890E94661387
:101550008C2FDF91CF911F910F910895EF92FF9201
:101560000F931F93CF93DF938091FA05882319F08F
:101570008EE395E02FD888E090E00E94D112EC0134
:1015800081E590E099838883CE0160DE8C01CE01F5
:101590000E946613C80106D80E94F101EC014BDEDF
:1015A0007C01CE010E946613C8010E946613C70128
:1015B000893C910514F088EC90E0DF91CF911F9168
:1015C0000F91FF90EF900895DF92EF92FF920F93AB
:1015D0001F93CF93DF931F92CDB7DEB7F82E2091E4
:1015E0002306D22E233010F082E0D82E80912406DC
:1015F000811103C0E22EED1801C0E12C80E0998337
:101600002CD880EAD6DD0F2D9981192FDA94FFEFBF
:10161000DF1629F0F80181918F01CBDDF7CFEE20A5
:1016200021F080E0C6DDEA94FACF2FD881E06ED8B1
:1016300080E013D88FEFBDDD898327D8898180733F
:10164000B9F380E063D860E787E021D884FF03C066
:101650004DD880E001C081E00F90DF91CF911F91C4
:101660000F91FF90EF90DF900895789484B5826099
:1016700084BD84B5816084BD85B5826085BD85B536
:10168000816085BD80916E00816080936E001092B4
:10169000810080918100826080938100809181002F
:1016A00081608093810080918000816080938000C0
:1016B0008091B10084608093B1008091B00081601E
:1016C0008093B0008091910082608093910080911E
:1016D000910081608093910080919000816080935F
:1016E00090008091A10082608093A1008091A10070
:1016F00081608093A1008091A00081608093A00010
:10170000809121018260809321018091210181607B
:10171000809321018091200181608093200180913C
:101720007A00846080937A0080917A00826080934E
:101730007A0080917A00816080937A0080917A00AB
:10174000806880937A001092C10061E086E068DCD6
:1017500061E086E036DC62E087E062DC62E088E03F
:101760005FDC61E08DE05CDCE0916D05F0916E0581
:1017700082E08083E0916905F0916A051082E09132
:101780006B05F0916C058FEC808310927505E091EC
:101790007105F091720586E08083E0916F05F0910C
:1017A0007005808180618083E0916F05F091700504
:1017B000808188608083E0916F05F0917005808161
:1017C00080688083E0916F05F091700580818F7D46
:1017D000808364E670E080E090E069DC8091FA0547
:1017E000882321F08FE592E00E94EA0288E090E0F1
:1017F000D8D68C0181E090E0F80191838083128239
:10180000138214821582C80121DD7C01C8015ED7D4
:10181000C7010E94D2020E94F10158D7C70156D7D2
:1018200080911C0690911D0620911E0630911F0686
:101830008217930711F061E0F3DB80911E0690910F
:101840001F0620911C0630911D062817390711F03C
:1018500061E0E6DB1FB7F89480915405811123C045
:10186000E1E9F1E08491E7EDF1E09491E82FF0E017
:10187000EE0FFF1FE85FFE4FA591B491EC91E923B5
:1018800019F461E085E39DDB61E085E3C9DB8CB59C
:1018900080618CBD8CB580648CBD61E084E3C0DB6D
:1018A00061E083E3BDDB809154058F5F8093540535
:1018B0001FBF80E00E94860381E00E942D0365E047
:1018C00070E080E090E0F3DB6CE080E00E94470392
:1018D0006FE584E00E94470386E00E946003877DF5
:1018E000182F10628BE990E0A0E0B0E080932C0606
:1018F00090932D06A0932E06B0932F06612F86E0BD
:101900000E94470386E00E946003811709F401C129
:1019100086E00E94600386E00E94600345E550E097
:1019200060E070E040932C0650932D0660932E06E5
:1019300070932F06682F677D86E00E94470386E03C
:101940000E94600380E00E942D0380E532DC83E783
:1019500030DC0E94450360E08DE10E94470360E0B7
:101960008CE10E9447031092240660E787E00E9402
:1019700047036CE485E00E94470380E00E942D034A
:1019800082EE17DC0E9445030E94760380E00E94ED
:10199000600381FD0AC0682F626080E00E944703F7
:1019A00065E070E080E090E082DB80E00E94600310
:1019B000682F6E7F80E00E9447036FEF84E00E94F3
:1019C0004703D0902A0680E00E942D038AE2F1DBD3
:1019D0000FE012E07801C02ED00EDE1429F0F701DE
:1019E00081917F01E6DBF9CF0E944503F0902A0642
:1019F00080E00E942D0380E3DCDBFC0CF01629F074
:101A0000F80181918F01D5DBF9CF0E9445036091E8
:101A1000230681E10E94470380E00E9486038091B3
:101A20002C0690912D0638DB8DE10E94600381FF2A
:101A300007C080912C0690912D062EDB0E94760324
:101A400080E00E946003682F6E7F80E00E94470361
:101A500082E00E946003E2E2F1E0E49161E070E084
:101A600001C0660FEA95EAF7682B82E00E944703FF
:101A700080E00E94F40290E4C92ED12C2FB7F89494
:101A80008091500590915105A0915205B091530558
:101A90002FBF8093590590935A05A0935B05B0938F
:101AA0005C0580319742A105B10558F58091080287
:101AB0008823F1F081E00E94F4020E944804882308
:101AC000B9F080E00E94140449DD9093580580939A
:101AD0005705883C91054CF486E092E075DD80E086
:101AE0000E94F4021092080203C084E092E06CDDD0
:101AF00087E03FDA892B89F488E03BDA019769F4C3
:101B000016C080E00E94F40260E086E05ADA5ED8F7
:101B1000B5CF81E080932206FBCE87E02ADA892BBD
:101B2000B1F488E026DA892B09F4B1C110C064E66B
:101B300070E080E090E0BBDA87E01BDA892B01F5EA
:101B400088E017DA0197E1F4C0E0D0E019C087E03F
:101B500010DA019709F0ADC188E00BDA892B09F0A2
:101B6000A8C164E670E080E090E0A1DA87E001DAE5
:101B7000019731F488E0FDD9892B11F4C2E0D0E05F
:101B8000D0935605C0935505C130D10509F44EC018
:101B9000C230D10509F49CC0209709F0B8CF8AE67D
:101BA00092E00E94EA0281E00E94F4028FE792E054
:101BB0000E94EA0204E610E00E944804882389F0AB
:101BC00080E00E941404CADCC29734F483E992E0F6
:101BD0000E94EA0211E009C083EA92E00E94EA0250
:101BE00003C00150110941F710E080E00E94F402A7
:101BF00060ED77E080E090E05ADA112309F443C108
:101C000081E00E94F402809102029091030272DC52
:101C10002091020230910302882309F44DC12F5F05
:101C20003F4F3093030220930202EDCF81E993E00E
:101C30000E94EA0281E00E94F4028FE792E00E9493
:101C4000EA0204E610E00E944804882389F080E05C
:101C50000E94140483DCC29744F483E992E00E945A
:101C6000EA0282E3E82EF12C2AC083EA92E004C162
:101C70000150110941F707C188E090E092D48C012E
:101C8000FC01D182C082E282F38214821582DEDA04
:101C90005C01C8011BD5C5010E94D2020E94F1015E
:101CA000FC01148913D5C50111D5812F90E00E9444
:101CB0009503FFEFEF1AFF0A112309F4E4C08091A6
:101CC000FA058823C9F280EA93E00E94EA02D4CFA1
:101CD0008FEA93E00E94EA0281E00E94F4028FE71B
:101CE00092E00E94EA0204E610E00E944804882381
:101CF00089F080E00E94140431DCC29734F483E957
:101D000092E00E94EA0211E009C083EA92E00E9498
:101D1000EA0203C00150110941F710E080E00E947F
:101D2000F40260ED77E080E090E0C1D9112309F47E
:101D3000AAC081E00E94F402809100029091010209
:101D400082339105ECF7D6DB882351F080910002B5
:101D50009091010201969093010280930002ECCFD2
:101D6000809100029091010277DB8FEA93E00E945C
:101D7000EA0281EC93E00E94600180910002909160
:101D800001020E94950304E610E00E9448048823A3
:101D900009F475C00E944804811106C064E670E031
:101DA00080E090E084D9F6CF81E00E94140488237B
:101DB00009F460C08AEB92E00E94EA020E94CD041E
:101DC0000E944804882331F064E670E080E090E0EF
:101DD0006ED9F6CF88EC92E00E94EA020E94480495
:101DE000811106C064E670E080E090E060D9F6CF33
:101DF00081E00E9414048823D1F18AEB92E00E94D2
:101E0000EA020E9482040E944804882331F064E6BA
:101E100070E080E090E04BD9F6CF80EE92E00E9437
:101E2000EA020E944804811106C064E670E080E086
:101E300090E03DD9F6CF81E00E9414048823A1F000
:101E40008AEB92E00E94EA020E94C9038C01892B6E
:101E500019F48CEF92E010C081E193E00E946001E0
:101E6000C8010E9495030FC083E393E005C082E59B
:101E700093E002C082E793E00E94EA0204C00150AE
:101E8000110909F082CF80E00E94F40240CE64E69E
:101E900070E080E090E00BD987E06BD8892B09F0E7
:101EA0006FCE88E066D8892B09F06ACEC1E0D0E019
:101EB00067CEC3E0D0E064CEC901CEDA8AE692E014
:101EC0000E94EA0281EC93E00E946001809102028C
:101ED000909103020E94950304E610E00E944804DA
:101EE000882309F452C00E944804811106C064E6A8
:101EF00070E080E090E0DBD8F6CF81E00E9414042F
:101F0000882309F4B7CF8AEB92E00E94EA020E948C
:101F1000CD040E944804882331F064E670E080E03C
:101F200090E0C5D8F6CF88EC92E00E94EA020E94C9
:101F30004804811106C064E670E080E090E0B7D804
:101F4000F6CF81E00E941404882309F490CF8AEB35
:101F500092E00E94EA020E9482040E9448048823C0
:101F600031F064E670E080E090E0A1D8F6CF80EE3A
:101F700092E00E94EA020E94480481115CCF64E66C
:101F800070E080E090E093D8F6CF0150110909F09D
:101F9000A5CF79CF1092600510925F0588EE93E08F
:101FA000A0E0B0E08093610590936205A093630583
:101FB000B09364052FE332E030935E0520935D0516
:101FC00025EC30E030936A052093690524EC30E07D
:101FD00030936C0520936B0520EC30E030936E0558
:101FE00020936D0521EC30E03093700520936F0550
:101FF00022EC30E0309372052093710526EC30E03E
:10200000309374052093730510927605109277052E
:10201000109278051092790523E030E030931D0688
:1020200020931C0624E030E030931F0620931E0608
:102030001092220620E2209323061092240625E027
:1020400020932A0645E050E060E070E040933006BF
:102050005093310660933206709333061092250632
:10206000109200061092FF058093010690930206DD
:10207000A0930306B093040681E592E09093FE05D9
:102080008093FD0510921406109213061092160606
:1020900010921506109218061092170610921A0642
:1020A0001092190660911B066E7F6D7F60931B0670
:1020B0006695617081E068278BE00E94E10761E02E
:1020C0008BE00E941008EDEAF1E0E491E0930D0648
:1020D000E7E6F1E0E491F0E0EE0FFF1FE85DFE4F70
:1020E0008591949190930F0680930E0660E08AE0AC
:1020F0000E94100880911B0681FD04C061E08AE007
:102100000E94E1078AE080930906ECEAF1E0E4919D
:10211000E0930A06E6E6F1E0E491F0E0EE0FFF1F3F
:10212000EE5BFE4F2591349130930C0620930B0605
:102130008093FB058BE08093FC058DE991E0909303
:102140001A06809319062DEB30E030931406209385
:1021500013062BE931E030931606209315062CE286
:1021600031E0309318062093170620916800216013
:10217000209368002BE630E0309311062093100680
:1021800020E1209312060197F1F78DEF95E011D928
:102190001092FA0508950F931F93CF93DF93CAEF20
:1021A000D5E001E512E01C830B838DEF95E00E94E2
:1021B0003E071C830B838DEF95E0DF91CF911F913C
:1021C0000F910C943E072F923F924F925F926F9225
:1021D0007F928F929F92AF92BF92CF92DF92EF92B7
:1021E000FF920F931F93CF93DF93CDB7DEB72C975A
:1021F0000FB6F894DEBF0FBECDBF7C016B018A0124
:10220000FC0117821682838181FFB0C1CE01019645
:102210004C01F7019381F60193FD859193FF819124
:102220006F01882309F49EC1853239F493FD8591AD
:1022300093FF81916F01853221F4B70190E0F4D2D0
:10224000E8CF512C312C20E02032A0F48B3269F001
:1022500030F4803259F0833269F420612CC08D3221
:1022600039F0803339F4216026C02260246023C015
:10227000286021C027FD27C030ED380F3A3078F4B0
:1022800026FF06C0FAE05F9E300D1124532E13C0C6
:102290008AE0389E300D1124332E20620CC08E321D
:1022A00021F426FD5FC1206406C08C3611F420683D
:1022B00002C0883641F4F60193FD859193FF819128
:1022C0006F018111C1CF982F9F7D9554933028F4D1
:1022D0000C5F1F4FFFE3F9830DC0833631F0833766
:1022E00071F0833509F057C021C0F80180818983DE
:1022F0000E5F1F4F44244394512C540114C03801E5
:10230000F2E06F0E711CF801A080B18026FF03C0BF
:10231000652D70E002C06FEF7FEFC5012C8779D289
:102320002C0183012C852F77222E16C03801F2E074
:102330006F0E711CF801A080B18026FF03C0652DCF
:1023400070E002C06FEF7FEFC5012C8757D22C01E0
:102350002C852068222E830123FC19C0832D90E058
:1023600048165906A0F4B70180E290E05DD23A9495
:10237000F5CFF50127FC859127FE81915F01B7011B
:1023800090E052D231103A94F1E04F1A51084114C2
:10239000510479F7DEC0843611F0893631F5F80141
:1023A00027FF07C060817181828193810C5F1F4F7D
:1023B00008C060817181072E000C880B990B0E5F9D
:1023C0001F4F2F76722E97FF09C0909580957095BC
:1023D00061957F4F8F4F9F4F2068722E2AE030E02B
:1023E000A4015AD2A82EA81843C0853729F42F7EFD
:1023F000B22E2AE030E025C0F22FF97FBF2E8F36B3
:10240000C1F018F4883579F0ADC0803719F08837FD
:1024100021F0A8C02F2F2061B22EB4FE0DC08B2D4D
:102420008460B82E09C024FF0AC09F2F9660B92E81
:1024300006C028E030E005C020E130E002C020E125
:1024400032E0F801B7FE07C060817181828193811B
:102450000C5F1F4F06C06081718180E090E00E5FCD
:102460001F4FA40119D2A82EA818FB2DFF777F2E8D
:1024700076FE0BC0372D3E7FA51450F474FE0AC0C3
:1024800072FC08C0372D3E7E05C0BA2C372D03C024
:10249000BA2C01C0B52C34FF0DC0FE01EA0DF11DB0
:1024A0008081803311F4397E09C032FF06C0B394B5
:1024B000B39404C0832F867809F0B39433FD12C01F
:1024C00030FF06C05A2CB31418F4530C5B18B32C0D
:1024D000B31460F4B70180E290E03C87A5D1B394D7
:1024E0003C85F6CFB31410F43B1801C0312C34FFF7
:1024F00011C0B70180E390E03C8796D13C8532FF64
:1025000016C031FD03C088E790E002C088E590E086
:10251000B7010CC0832F867851F031FF02C08BE2E7
:1025200001C080E237FD8DE2B70190E07DD1A514B6
:1025300030F4B70180E390E077D15A94F8CFAA94B1
:10254000F401EA0DF11D8081B70190E06DD1A11079
:10255000F6CF332009F45DCEB70180E290E064D17C
:102560003A94F7CFF7018681978102C08FEF9FEFF2
:102570002C960FB6F894DEBF0FBECDBFDF91CF9182
:102580001F910F91FF90EF90DF90CF90BF90AF9091
:102590009F908F907F906F905F904F903F902F9083
:1025A0000895CF93DF938230910510F482E090E09C
:1025B000E0917F06F091800620E030E0C0E0D0E0BE
:1025C000309711F14081518148175907C0F04817E1
:1025D000590761F482819381209719F09B838A8344
:1025E0002BC09093800680937F0626C0211531056D
:1025F00019F04217530718F49A01BE01DF01EF01E9
:102600000280F381E02DDCCF2115310509F1281B73
:10261000390B2430310590F412968D919C911397CB
:102620006115710521F0FB019383828304C09093AF
:10263000800680937F06FD01329644C0FD01E20FC3
:10264000F31F81939193225031092D933C933AC00B
:1026500020917D0630917E06232B41F420910B02C0
:1026600030910C0230937E0620937D062091090262
:1026700030910A022115310541F42DB73EB7409142
:102680000D0250910E02241B350BE0917D06F09156
:102690007E06E217F307A0F42E1B3F0B281739071D
:1026A00078F0AC014E5F5F4F2417350748F04E0FAE
:1026B0005F1F50937E0640937D068193919302C0E5
:1026C000E0E0F0E0CF01DF91CF9108950F931F93E9
:1026D000CF93DF93009709F48CC0FC0132971382EB
:1026E000128200917F06109180060115110581F478
:1026F00020813181820F931F20917D0630917E06CB
:102700002817390779F5F0937E06E0937D0671C0AE
:10271000D80140E050E0AE17BF0750F412962D915B
:102720003C911397AD012115310509F1D901F3CF82
:102730009D01DA013383228360817181860F971FA7
:102740008217930769F4EC0128813981260F371F1E
:102750002E5F3F4F318320838A819B8193838283C5
:10276000452B29F4F0938006E0937F0642C0139630
:10277000FC93EE931297ED01499159919E01240F1C
:10278000351FE217F30771F480819181840F951F43
:10279000029611969C938E938281938113969C93BB
:1027A0008E931297E0E0F0E0D80112968D919C9103
:1027B0001397009719F0F8018C01F6CF8D919C9139
:1027C00098012E5F3F4F820F931F20917D0630911D
:1027D0007E062817390769F4309729F4109280068D
:1027E00010927F0602C01382128210937E0600931D
:1027F0007D06DF91CF911F910F910895FC01059007
:10280000615070400110D8F7809590958E0F9F1FF2
:102810000895FC016150704001900110D8F7809537
:1028200090958E0F9F1F08950F931F93CF93DF9363
:10283000FB01238121FD03C08FEF9FEF28C022FF02
:1028400016C046815781248135814217530744F4CD
:10285000A081B1819D012F5F3F4F318320838C93F5
:10286000268137812F5F3F4F3783268310C0EB01CE
:10287000092F182F0084F185E02D1995892BE1F699
:102880008E819F8101969F838E83812F902FDF9170
:10289000CF911F910F910895FA01AA27283051F185
:1028A000203181F1E8946F936E7F6E5F7F4F8F4F81
:1028B0009F4FAF4FB1E03ED0B4E03CD0670F781FE0
:1028C000891F9A1FA11D680F791F8A1F911DA11DC5
:1028D0006A0F711D811D911DA11D20D009F46894FE
:1028E0003F912AE0269F11243019305D3193DEF6A6
:1028F000CF010895462F4770405D4193B3E00FD05C
:10290000C9F7F6CF462F4F70405D4A3318F0495D46
:1029100031FD4052419302D0A9F7EACFB4E0A69529
:102920009795879577956795BA95C9F7009761054B
:10293000710508959B01AC010A2E069457954795A1
:1029400037952795BA95C9F7620F731F841F951F96
:10295000A01D089597FB072E16F4009406D077FD6E
:1029600008D035D007FC05D03EF4909581959F4F57
:102970000895709561957F4F0895A1E21A2EAA1BC4
:10298000BB1BFD010DC0AA1FBB1FEE1FFF1FA2171F
:10299000B307E407F50720F0A21BB30BE40BF50B1C
:1029A000661F771F881F991F1A9469F760957095A5
:1029B000809590959B01AC01BD01CF010895EE0F6C
:1029C000FF1F881F8BBF0790F691E02D1994AA1B5B
:1029D000BB1B51E107C0AA1FBB1FA617B70710F00A
:1029E000A61BB70B881F991F5A95A9F7809590953C
:1029F000BC01CD01089581E090E0F8942FC00F93C1
:102A00001F93CF93DF93CDB7DEB72E970FB6F89411
:102A1000DEBF0FBECDBF0E891F8986E08C831A836F
:102A200009838FEF9FE79E838D83AE01465E5F4FE4
:102A3000688D798DCE010196C6DB2F813885F8012E
:102A4000E20FF31F10822E960FB6F894DEBF0FBE72
:102A5000CDBFDF91CF911F910F91089511E0C8E193
:102A6000D1E000E005C0802FFE01A9DF2196011D05
:0E2A7000C931D10780E00807B1F7F894FFCF15
:102A7E00010032004C004F00010000810680003042
:102A8E003030303100000001100210031004100528
:102A9E001006100710081009100A100B100C100D5C
:102AAE00100E100F10101011101210000000007FE9
:102ABE0005010A1805C505490527053B0500000057
:102ACE0000B206010A5507B10606071D079906460C
:102ADE005053202D204F70656E0054656D706F72CF
:102AEE0061727920456E726F6C6C6D656E74004507
:102AFE006E746572204D61737465722046696E67DF
:102B0E006572004D617374657220566572696669EF
:102B1E006564004D6173746572206973206E6F7405
:102B2E002056657269666965640052656D6F7665DB
:102B3E002066696E676572005072657373207361EB
:102B4E006D652066696E67657220616761696E00EA
:102B5E0050726573732073616D652066696E67656B
:102B6E00722079657420616761696E00456E726FBF
:102B7E006C6C696E67205375636365737366756CF1
:102B8E0000456E726F6C6C696E67204661696C658C
:102B9E00642077697468206572726F7220636F6447
:102BAE00653A004661696C656420746F20636170DC
:102BBE00747572652074686972642066696E6765E3
:102BCE0072004661696C656420746F206361707475
:102BDE00757265207365636F6E642066696E6765D6
:102BEE0072004661696C656420746F206361707455
:102BFE007572652066697273742066696E67657298
:102C0E000064656C657465206D6F6465204F6E00A1
:102C1E00465053202D2044656C6574654944004D23
:102C2E00617374657220456E726F6C6C6D656E7437
:102C3E000050726573732066696E67657220746FDB
:102C4E0020456E726F6C6C2023000D0A0022002549
:102C5E002E325800434F4D4D414E445F5354415216
:102C6E00545F434F44455F3100434F4D4D414E44F9
:102C7E005F53544152545F434F44455F3200434FBC
:102C8E004D4D414E445F4445564943455F49445F6F
:102C9E003100434F4D4D414E445F444556494345E7
:102CAE005F49445F320041636B4E616B5F4C4F571F
:102CBE000041636B4E616B5F48494748004368654E
:102CCE00636B73756D5F4C4F5700436865636B7331
:102CDE00756D5F4849474800465053202D20524598
:102CEE0043563A2000465053202D2053454E443A29
:102CFE002000465053202D204C4544206F6E004638
:102D0E005053202D204C4544206F6666004650538C
:102D1E00202D20456E726F6C6C3300465053202D63
:102D2E00204361707475726546696E676572004600
:102D3E005053202D204973507265737346696E6728
:102D4E00657200465053202D20456E726F6C6C32AA
:102D5E0000465053202D20456E726F6C6C31005220
:102D6E006573706F6E73655F5061636B6574207011
:102D7E00617273696E67206572726F722000207CBB
:102D8E007C200020213D2000465053202D20456EF2
:102D9E00726F6C6C537461727400465053202D2008
:102DAE00436865636B456E726F6C6C65640046506C
:102DBE0053202D204964656E74696679315F4E002B
:020000023000CC
:10E000000D9489F10D94B2F10D94B2F10D94B2F129
:10E010000D94B2F10D94B2F10D94B2F10D94B2F1F0
:10E020000D94B2F10D94B2F10D94B2F10D94B2F1E0
:10E030000D94B2F10D94B2F10D94B2F10D94B2F1D0
:10E040000D94B2F10D94B2F10D94B2F10D94B2F1C0
:10E050000D94B2F10D94B2F10D94B2F10D94B2F1B0
:10E060000D94B2F10D94B2F10D94B2F10D94B2F1A0
:10E070000D94B2F10D94B2F10D94B2F10D94B2F190
:10E080000D94B2F10D94B2F10D94B2F10D94B2F180
:10E090000D94B2F10D94B2F10D94B2F10D94B2F170
:10E0A0000D94B2F10D94B2F10D94B2F10D94B2F160
:10E0B0000D94B2F10D94B2F10D94B2F10D94B2F150
:10E0C0000D94B2F10D94B2F10D94B2F10D94B2F140
:10E0D0000D94B2F10D94B2F10D94B2F10D94B2F130
:10E0E0000D94B2F141546D656761323536300041AF
:10E0F000726475696E6F206578706C6F72657220DE
:10E1000073746B3530305632206279204D4C530099
:10E11000426F6F746C6F616465723E004875683F52
:10E1200000436F6D70696C6564206F6E203D200048
:10E130004350552054797065202020203D20005FF9
:10E140005F4156525F415243485F5F3D2000415658
:10E1500052204C696243205665723D20004743437C
:10E160002056657273696F6E203D20004350552024
:10E1700049442020202020203D20004C6F7720663D
:10E18000757365202020203D20004869676820665F
:10E190007573652020203D200045787420667573D6
:10E1A00065202020203D20004C6F636B2066757336
:10E1B000652020203D20004D617220203720323024
:10E1C000313300312E362E3800342E332E350056A2
:10E1D00023202020414444522020206F7020636F70
:10E1E00064652020202020696E73747275637469E1
:10E1F0006F6E2061646472202020496E74657272B3
:10E20000757074006E6F20766563746F7200726A49
:10E210006D702020006A6D70200057686174207056
:10E220006F72743A00506F7274206E6F7420737541
:10E2300070706F72746564004D7573742062652030
:10E2400061206C6574746572002000577269747483
:10E25000696E672045450052656164696E672045B7
:10E26000450045452065727220636E743D00504F35
:10E27000525400303D5A65726F2061646472003FF1
:10E280003D43505520737461747300403D454550C3
:10E29000524F4D207465737400423D426C696E6B41
:10E2A000204C454400453D44756D70204545505215
:10E2B0004F4D00463D44756D7020464C415348001B
:10E2C000483D48656C70004C3D4C69737420492F83
:10E2D0004F20506F72747300513D51756974005234
:10E2E0003D44756D702052414D00563D73686F7707
:10E2F00020696E7465727275707420566563746FF0
:10E30000727300593D506F727420626C696E6B00BD
:10E310002A0011241FBECFEFD1E2DEBFCDBF01E046
:10E320000CBF12E0A0E0B2E0EEE1FDEF03E00BBFB6
:10E3300002C007900D92A030B107D9F712E0A0E01B
:10E34000B2E001C01D92AE30B107E1F70F9460F367
:10E350000D948DFE01E20EBF0FEF0DBF11241FBE05
:10E360000D9460F30D9400F020E030E040ED57E0B4
:10E3700005C0FA013197F1F72F5F3F4F2817390792
:10E38000C0F308959C01260F311DC901A0E0B0E043
:10E390002F5F3F4FABBFFC018791882361F08093D3
:10E3A000C6008091C00086FFFCCF8091C0008064D1
:10E3B0008093C000EACF08958DE08093C6008091DD
:10E3C000C00086FFFCCF8091C00080648093C000B5
:10E3D0008AE08093C6008091C00086FFFCCF8091C8
:10E3E000C00080648093C00008950F94C2F10F9420
:10E3F000DCF10895FC019081992359F09093C600B7
:10E400008091C00086FFFCCF8091C0008064809323
:10E41000C0003196992379F70895282F982F929567
:10E420009F70892F805D8A3308F0895F8093C600D2
:10E430008091C00086FFFCCF8091C00080648093F3
:10E44000C000822F8F70982F905D9A3308F0995FEB
:10E450009093C6008091C00086FFFCCF8091C000E1
:10E4600080648093C00008959C01FB01853691056E
:10E470001CF46330710594F0C90164E670E00F94F8
:10E480002EFE605D7F4F6093C6008091C00086FFC6
:10E49000FCCF8091C00080648093C0002B30310598
:10E4A00014F43297B4F0C90164E670E00F942EFEC4
:10E4B0006AE070E00F942EFE605D7F4F6093C600AF
:10E4C0008091C00086FFFCCF8091C0008064809363
:10E4D000C000C9016AE070E00F942EFEC0968093E0
:10E4E000C6008091C00086FFFCCF8091C000806490
:10E4F0008093C00008951F93182F8EE692EE60E07F
:10E500000F94C2F11093C6008091C00086FFFCCF2B
:10E510008091C00080648093C0000F94DCF11F9153
:10E5200008952F923F924F925F926F927F928F92B7
:10E530009F92AF92BF92CF92DF92EF92FF920F9392
:10E540001F93DF93CF93CDB7DEB762970FB6F894E2
:10E55000DEBF0FBECDBF382E622ECA01DB015C01CB
:10E560006D01772420E2222E2E010894411C511CBB
:10E570008BC081E0A81680E0B80681E0C80680E084
:10E58000D80628F0C601AA27BB270F940DF2BB2797
:10E59000AD2D9C2D8B2D0F940DF28A2D0F940DF225
:10E5A0002092C6008091C00086FFFCCF8091C00001
:10E5B00080648093C0009DE29093C6008091C0006B
:10E5C00086FFFCCF8091C00080648093C0002092C1
:10E5D000C6008091C00086FFFCCF8091C00080649F
:10E5E0008093C00019828601750188249924A1E0D6
:10E5F0003A1651F03A1620F0B2E03B1661F409C029
:10E600000BBFF701779007C0C7010F9477FE782EF4
:10E6100002C0F7017080872D0F940DF22092C60082
:10E620008091C00086FFFCCF8091C0008064809301
:10E63000C000872D8052F401EF70F0708F3520F408
:10E64000E40DF51D708204C0E40DF51D8EE280839B
:10E650000894E11CF11C011D111D0894811C911CE2
:10E6600090E18916910409F0C2CF80E190E0A0E02A
:10E67000B0E0A80EB91ECA1EDB1E198AC2010F9493
:10E68000FAF10F94DCF16A94662009F072CF629679
:10E690000FB6F894DEBF0FBECDBFCF91DF911F91B3
:10E6A0000F91FF90EF90DF90CF90BF90AF909F9031
:10E6B0008F907F906F905F904F903F902F90089534
:10E6C0002F923F924F925F926F927F928F929F9282
:10E6D000AF92BF92CF92DF92EF92FF920F931F9370
:10E6E000DF93CF93CDB7DEB7CD53D1400FB6F894BB
:10E6F000DEBF0FBECDBF01E20EBF0FEF0DBF94B75F
:10E70000F894A89514BE80916000886180936000A1
:10E7100010926000789493FF05C0E0910002F091A0
:10E7200001021995279A2F9A8091C00082608093E8
:10E73000C00080E18093C40088E18093C1000000A4
:10E74000EE24FF24870144E0A42EB12CCC24DD2448
:10E7500024C0C5010197F1F70894E11CF11C011DCB
:10E76000111D21E2E2162EE4F20620E0020720E06D
:10E77000120718F031E0C32ED12CC801B70127ECE5
:10E780003BE140E050E00F9441FE611571058105C9
:10E79000910519F485B1805885B98091C00087FD35
:10E7A00003C0C114D104A9F2A6014F5F5F4FC25E3E
:10E7B000DE4F59834883CE51D140C25EDE4F8881FF
:10E7C0009981CE51D140019711F00D9410FEC05D9A
:10E7D000DE4F19821882C053D14060E0C15DDE4F28
:10E7E0001882CF52D14088249924C35DDE4F19820C
:10E7F0001882CD52D140C05EDE4F188219821A8233
:10E800001B82C052D140CE5CDE4F188219821A8220
:10E810001B82C253D140EE24FF2487010BBFF701B6
:10E8200007911691C45CDE4F19830883CC53D14005
:10E830000D940BFEC25EDE4F28813981CE51D1404E
:10E840002130310509F52091C600C25EDE4F1982E4
:10E850001882CE51D14022C02F5F3F4F4F4F5F4FA4
:10E86000213082E138078AE7480780E0580780F0C6
:10E87000C45CDE4FE881F981CC53D140EF5FFF4F9C
:10E8800019F0EE27FF27099420E030E040E050E047
:10E890008091C00087FFE0CF2091C600C35DDE4FAE
:10E8A00048815981CD52D1404F5F5F4FC35DDE4FEC
:10E8B00059834883CD52D140213209F063C64A3092
:10E8C000510508F05FC60894811C911C53E0851621
:10E8D000910409F059C600E010E018C081E280936D
:10E8E000C6008091C00086FFFCCF8091C00080648C
:10E8F0008093C0002F5F3F4F2931310579F70F9486
:10E90000DCF10F5F1F4F0530110519F020E030E0FA
:10E91000E5CF10920A0210920B0210920C02109294
:10E920000D02109206021092070210920802109235
:10E930000902109202021092030210920402109235
:10E9400005028FEE90EE60E00F94F5F180E191EE1C
:10E9500060E00F94C2F18091C00087FFFCCF9091DE
:10E96000C600903608F09F759032B8F09093C600BC
:10E970008091C00086FFFCCF8091C00080648093AE
:10E98000C000A0E2A093C6008091C00086FFFCCF2B
:10E990008091C00080648093C000983409F4D7C18E
:10E9A0009934B8F4923409F459C1933458F490333B
:10E9B00019F1903308F4E3C59F33A1F1903409F0C5
:10E9C000DEC5BDC0953409F470C1963409F0D7C5D1
:10E9D00098C1923509F42BC2933538F49C3409F46C
:10E9E000F5C1913509F0CBC518C2963509F445C279
:10E9F000993509F0C4C567C483E792EE62E00F94CD
:10EA0000F5F110920602109207021092080210927D
:10EA1000090210920A0210920B0210920C0210923C
:10EA20000D0213C18FE792EE62E00F94F5F18FEEC5
:10EA300090EE60E00F94F5F181E291EE60E00F94CA
:10EA4000C2F187EB91EE60E00F94F5F180E391EE77
:10EA500060E00F94C2F184EE90EE60E00F94F5F167
:10EA60008FE391EE60E00F94C2F186E090E061E008
:10EA700070E00F9434F20F94DCF18DE591EE60E0DC
:10EA80000F94C2F189EC91EE60E00F94F5F18EE401
:10EA900091EE60E00F94C2F183EC91EE60E00F9490
:10EAA000F5F18CE691EE60E00F94C2F18EE10F94E7
:10EAB0000DF288E90F940DF281E00F940DF20F949E
:10EAC000DCF18BE791EE60E00F94C2F119E0E0E039
:10EAD000F0E010935700E4918E2F0F940DF20F94F5
:10EAE000DCF18AE891EE60E00F94C2F1E3E0F0E03F
:10EAF00010935700E4918E2F0F940DF20F94DCF1D8
:10EB000089E991EE60E00F94C2F1E2E0F0E0109349
:10EB10005700E4918E2F0F940DF20F94DCF188EAE8
:10EB200091EE60E00F94C2F1E1E0F0E01093570045
:10EB30001491812F0F940DF20F94DCF107CF8BE825
:10EB400092EE62E00F94F5F18BE492EE60E00F94A8
:10EB5000F5F10F94DCF100E010E019C0C8016F2D51
:10EB60000F947FFEFF2031F489E492EE60E00F9471
:10EB7000C2F10BC0F092C6008091C00086FFFCCFAE
:10EB80008091C00080648093C0000F5F1F4FC80158
:10EB900081519F41A0E0B0E0ABBFFC01F790BAE229
:10EBA000FB1621F0E2E000301E07C1F60F94DCF105
:10EBB0000F94DCF187E592EE60E00F94F5F10F948D
:10EBC000DCF1CC24DD2400E010E01EC0C8010F946D
:10EBD00077FEF82E882331F489E492EE60E00F94FA
:10EBE000C2F10BC08093C6008091C00086FFFCCFAD
:10EBF0008091C00080648093C000FE1419F00894D6
:10EC0000C11CD11C0F5F1F4FC80181519F41A0E063
:10EC1000B0E0ABBFFC01E790FAE2EF1621F022E092
:10EC20000030120799F60F94DCF10F94DCF182E6C4
:10EC300092EE60E00F94C2F1C60161E070E00F94C3
:10EC400034F20F94DCF10F94DCF110920202109276
:10EC50000302109204021092050278CE89E992EE26
:10EC600062E00F94F5F1279A2F9A16C02F9880E052
:10EC700090E0E0EDF7E03197F1F7019684369105E9
:10EC8000C1F72F9A80E090E0E0EDF7E03197F1F7DF
:10EC9000019684369105C1F78091C00087FFE6CFC9
:10ECA0008091C00087FFFCCF64C485EA92EE62E0E9
:10ECB0000F94F5F140910202509103026091040219
:10ECC0007091050281E020E10F9491F2809102029F
:10ECD00090910302A0910402B091050280509F4FD1
:10ECE000AF4FBF4F8093020290930302A0930402A0
:10ECF000B093050280509041A040B04008F426CE69
:10ED0000A4CF83EB92EE62E00F94F5F140910602FE
:10ED100050910702609108027091090280E020E1A1
:10ED20000F9491F28091060290910702A09108023F
:10ED3000B091090280509F4FAF4FBF4F80930602A2
:10ED400090930702A0930802B0930902FFCD80ECD4
:10ED500092EE62E00F94F5F183E792EE60E00F949B
:10ED6000F5F18FE792EE60E00F94F5F18BE892EE0B
:10ED700060E00F94F5F189E992EE60E00F94F5F10F
:10ED800085EA92EE60E00F94F5F183EB92EE60E09D
:10ED90000F94F5F180EC92EE60E00F94F5F187ECC2
:10EDA00092EE60E00F94F5F188ED92EE60E00F9442
:10EDB000F5F18FED92EE60E00F94F5F18AEE92EEB0
:10EDC00060E00F94F5F183E093EEBDCD87EC92EE19
:10EDD00062E00F94F5F181E40F947BF282E40F94EA
:10EDE0007BF283E40F947BF284E40F947BF285E45E
:10EDF0000F947BF286E40F947BF287E40F947BF20E
:10EE000088E40F947BF28AE40F947BF28BE40F94F6
:10EE10007BF28CE40F947BF299CD88ED92EE62E068
:10EE20000F94F5F1772473948824992409C48FED05
:10EE300092EE62E00F94F5F140910A0250910B02BC
:10EE400060910C0270910D0282E020E10F9491F22A
:10EE500080910A0290910B02A0910C02B0910D02D8
:10EE600080509F4FAF4FBF4F80930A0290930B0289
:10EE7000A0930C02B0930D0269CD8AEE92EE62E08F
:10EE80000F94F5F184EE90EE60E00F94F5F18FECC5
:10EE900091EE60E00F94F5F1662477244301CC5D98
:10EEA000DE4F19821882C452D140D401C301B695F5
:10EEB000A79597958795CA5DDE4F88839983AA8326
:10EEC000BB83C652D140CC5DDE4FA881B981C4520C
:10EED000D1401196CC5DDE4FB983A883C452D14096
:10EEE000CD0162E070E00F9434F2B0E2B093C6005E
:10EEF0008091C00086FFFCCF8091C0008064809329
:10EF0000C000EDE2E093C6008091C00086FFFCCF18
:10EF10008091C00080648093C000F0E2F093C6004E
:10EF20008091C00086FFFCCF8091C00080648093F8
:10EF3000C000CA5DDE4FE880F9800A811B81C6529D
:10EF4000D140BB27A12F902F8F2D0F940DF2CA5DBA
:10EF5000DE4F8881C652D1400F940DF2B0E2FB2EF5
:10EF6000F092C6008091C00086FFFCCF8091C00067
:10EF700080648093C0000DE30093C6008091C000C0
:10EF800086FFFCCF8091C00080648093C00010E2B7
:10EF90001093C6008091C00086FFFCCF8091C00016
:10EFA00080648093C0008BBEF3012791C65DDE4F65
:10EFB0002883CA52D140A22EBB24CC24DD2408943D
:10EFC000611C711C811C911C8BBEF3018791282E42
:10EFD0003324442455240894611C711C811C911C09
:10EFE0008BBEF3013791C55DDE4F3883CB52D140E4
:10EFF0000894611C711C811C911C8BBEF30147910C
:10F00000C45DDE4F4883CC52D140ADEFEA2EAFEF66
:10F01000FA2EAFEF0A2FAFEF1A2F6E0C7F1C801E57
:10F02000911E142D032DF22CEE24EA0CFB1C0C1D5A
:10F030001D1D0F940DF220E22093C6008091C000A8
:10F0400086FFFCCF8091C00080648093C000C65DC5
:10F05000DE4F8881CA52D1400F940DF230E23093D6
:10F06000C6008091C00086FFFCCF8091C000806404
:10F070008093C000C45DDE4F8881CC52D1400F9494
:10F080000DF240E24093C6008091C00086FFFCCFA5
:10F090008091C00080648093C000C55DDE4F888190
:10F0A000CB52D1400F940DF250E25093C6008091A4
:10F0B000C00086FFFCCF8091C00080648093C000B8
:10F0C0008FEFE8168FEFF80680E0080780E018075A
:10F0D00031F484E092EE60E00F94C2F1DFC0D80119
:10F0E000C7018070907CA070B0708050904CA040A0
:10F0F000B040D1F52FEF3FE340E050E0E222F322B1
:10F1000004231523CA5DDE4FA880B980CA80DB8046
:10F11000C652D140AE0CBF1CC01ED11EAA0CBB1CD7
:10F12000CC1CDD1C8EE092EE60E00F94C2F1BB2798
:10F13000A12F902F8F2D0F940DF28E2D0F940DF285
:10F1400030E23093C6008091C00086FFFCCF8091F2
:10F15000C00080648093C0004EE34093C60080915D
:10F16000C00086FFFCCF87C08EE09EEFA0E0B0E03D
:10F17000E822F9220A231B239CE0E91694E9F90608
:10F1800090E0090790E0190709F088C0C45DDE4FE0
:10F19000A881CC52D140EA2EFF2400E010E0102FCD
:10F1A0000F2DFE2CEE24C55DDE4FB881CB52D14031
:10F1B000EB0EF11C011D111DD601C501817090706F
:10F1C000A070B070DC0199278827E80EF91E0A1F8D
:10F1D0001B1F20EF30E040E050E0A222B322C42207
:10F1E000D52241E1AA0CBB1CCC1CDD1C4A95D1F7F1
:10F1F000EA0CFB1C0C1D1D1D81E090E0A0E0B0E0BE
:10F20000282239224A225B2235E1220C331C441C7D
:10F21000551C3A95D1F7E20CF31C041D151D57013E
:10F220006801AA0CBB1CCC1CDD1C85E192EE60E0E1
:10F230000F94C2F1C801AA27BB270F940DF2BB2778
:10F24000A12F902F8F2D0F940DF28E2D0F940DF274
:10F2500090E29093C6008091C00086FFFCCF809121
:10F26000C00080648093C000AEE3A093C60080918C
:10F27000C00086FFFCCF8091C00080648093C000F6
:10F28000C601AA27BB270F940DF2BB27AD2D9C2DDD
:10F290008B2D0F940DF28A2D0F940DF20F94DCF14B
:10F2A000CC5DDE4FE881F981C452D140F99709F471
:10F2B0004DCBF4E0EF2EF12C012D112D6E0C7F1CA7
:10F2C000801E911EF2CD83E093EE62E00F94F5F183
:10F2D0008AE192EE60E00F94C2F18091C00087FF56
:10F2E000FCCF1091C6001F751093C6008091C0001E
:10F2F00086FFFCCF8091C00080648093C0000F9493
:10F30000DCF1812F81548A3108F036C1163409F4BA
:10F3100095C0173490F4133409F44EC0143430F40B
:10F320001134F1F0123409F01DC130C0143409F465
:10F3300059C0153409F016C16BC01A3409F4C4C0A1
:10F340001B3438F4173409F48FC0183409F00AC19B
:10F35000A1C01B3409F4D2C01C3409F003C1E8C0B9
:10F360008FEF81B90DC082B1809582B980E090E0C5
:10F37000E0EDF7E03197F1F70196883C9105C1F790
:10F380008091C00087FFEFCF12B8EFC08FEF84B934
:10F390000DC085B1809585B980E090E0E0EDF7E0A3
:10F3A0003197F1F70196883C9105C1F78091C00033
:10F3B00087FFEFCF15B8D9C08FEF87B90DC088B1DF
:10F3C000809588B980E090E0E0EDF7E03197F1F7C3
:10F3D0000196883C9105C1F78091C00087FFEFCF6F
:10F3E00018B8C3C08FEF8AB90DC08BB180958BB9A7
:10F3F00080E090E0E0EDF7E03197F1F70196883C8E
:10F400009105C1F78091C00087FFEFCF1BB8ADC059
:10F410008FEF8DB90DC08EB180958EB980E090E0F0
:10F42000E0EDF7E03197F1F70196883C9105C1F7DF
:10F430008091C00087FFEFCF1EB897C08FEF80BBD1
:10F440000DC081B3809581BB80E090E0E0EDF7E0F6
:10F450003197F1F70196883C9105C1F78091C00082
:10F4600087FFEFCF11BA81C08FEF83BB0DC084B38C
:10F47000809584BB80E090E0E0EDF7E03197F1F714
:10F480000196883C9105C1F78091C00087FFEFCFBE
:10F4900014BA6BC08FEF809301010FC080910201FD
:10F4A00080958093020180E090E0E0EDF7E03197F5
:10F4B000F1F70196883C9105C1F78091C00087FF64
:10F4C000EDCF1092020151C08FEF809304010FC065
:10F4D0008091050180958093050180E090E0E0ED4A
:10F4E000F7E03197F1F70196883C9105C1F78091DB
:10F4F000C00087FFEDCF1092050137C08FEF8093DA
:10F5000007010FC08091080180958093080180E079
:10F5100090E0E0EDF7E03197F1F70196883C910536
:10F52000C1F78091C00087FFEDCF109208011DC088
:10F530008FEF80930A010FC080910B01809580931B
:10F540000B0180E090E0E0EDF7E03197F1F70196F4
:10F55000883C9105C1F78091C00087FFEDCF1092E4
:10F560000B0103C085E292EEEEC98091C00087FFD7
:10F57000FCCF8091C600EAC988E392EEE4C98CE131
:10F5800091EEE1C988249924933011F1943028F444
:10F59000913089F09230B8F408C0953061F195301F
:10F5A000F0F0963009F048C043C02B3109F042C951
:10F5B00091E06BE13FC96227C15DDE4F2883CF52E6
:10F5C000D14092E037C9B22FA0E0622793E032C960
:10F5D000822F90E0A82BB92B622794E02BC92E3004
:10F5E00009F039C3622795E0C05DDE4F19821882A9
:10F5F000C053D1401FC9E1E0F0E0EC0FFD1FC05D3A
:10F60000DE4F08811981C053D140E00FF11F2083E4
:10F610000F5F1F4FC05DDE4F19830883C053D14079
:10F6200062270A171B0709F005C9D80196E002C92D
:10F63000261709F010C303C0973009F0FBC87724E0
:10F640009981933109F412C19431C8F4963009F4C8
:10F65000D8C0973050F4923009F406C1933009F4C1
:10F660006DC0913009F059C253C0913109F477C08F
:10F67000923108F0BBC0903109F04FC2F5C098310B
:10F6800009F487C0993150F4953109F4EFC09531F0
:10F6900008F4C6C1963109F040C2C2C19A3109F4DA
:10F6A0006CC09A3108F491C09B3109F45BC09D3164
:10F6B00009F033C29D81903359F48F81882311F46E
:10F6C0009EE11CC0813011F091E018C098E916C08D
:10F6D000892F807591F0903539F4E0E0F0E089E011
:10F6E0008093570094910AC0983539F4E3E0F0E034
:10F6F00089E080935700949101C090E01A821B82A8
:10F700008D818C831D829E831F8227E030E009C299
:10F710001A8288E08B8381E48C8386E58D8382E581
:10F720008E8389E48F8383E5888780E589878FE5E9
:10F730008A8782E38B872BE030E0F3C18A818139AD
:10F7400041F0823941F0803911F48FE005C080E04A
:10F7500003C082E001C08AE01A828B8344C0772410
:10F76000739482C08D81882311F48EE12CC0813086
:10F7700011F081E028C088E926C01A82E1E0F0E0BB
:10F7800089E08093570084918B831C8224E030E0D1
:10F79000C8C18B81803589F48C81883039F4E2E0EE
:10F7A000F0E089E08093570084910DC0E0E0F0E044
:10F7B00089E080935700849106C0E3E0F0E089E09F
:10F7C0008093570084911A82DFCF8D81836C99E0FA
:10F7D000E1E0F0E0082E90935700E89507B600FCB2
:10F7E000FDCF1A821B8223E030E09BC180EC8A832C
:10F7F000CE5CDE4F188219821A821B82C253D1401E
:10F800008EC18A8190E0A0E0B0E0582F44273327D2
:10F8100022278B8190E0A0E0B0E0DC0199278827C7
:10F82000282B392B4A2B5B2B8D8190E0A0E0B0E098
:10F83000282B392B4A2B5B2B8C8190E0A0E0B0E089
:10F84000BA2FA92F982F8827282B392B4A2B5B2BCF
:10F85000220F331F441F551FC05EDE4F288339839C
:10F860004A835B83C052D1401A8259C13A81C95C34
:10F87000DE4F3883C753D140CA5CDE4F1882C6536F
:10F88000D1408B81C82EDD24CA5CDE4F488159816E
:10F89000C653D140C42AD52A933109F082C0CE5C28
:10F8A000DE4F88819981AA81BB81C253D1408050AB
:10F8B000904CA340B04030F583E0CE5CDE4FE88052
:10F8C000F9800A811B81C253D140F70100935B008C
:10F8D00080935700E89507B600FCFDCFCE5CDE4F65
:10F8E000088119812A813B81C253D14000501F4FAA
:10F8F0002F4F3F4FCE5CDE4F088319832A833B8313
:10F90000C253D140C05EDE4F488159816A817B81FC
:10F91000C052D140DE011B9631E08C9111962C91A2
:10F9200011971296C75CDE4F2883C953D140C85C3B
:10F93000DE4F1882C853D14090E0C85CDE4FE881AA
:10F94000F981C853D1408E2B9F2B0C01FA01609393
:10F950005B0030935700E89511244E5F5F4F6F4F67
:10F960007F4F0EEFE02E0FEFF02ECE0CDF1CC114F8
:10F97000D10499F685E0C05EDE4F088119812A81A5
:10F980003B81C052D140F80120935B008093570027
:10F99000E89507B600FCFDCF81E180935700E8951C
:10F9A00035C0C05EDE4F88819981AA81BB81C0527B
:10F9B000D140B695A795979587957C018601ABE0D8
:10F9C000AA2EB12CAC0EBD1E0BC0D5016D915D01F0
:10F9D000C7010F947FFE0894E11CF11C01501040F8
:10F9E0000115110591F7A60160E070E0440F551F65
:10F9F000661F771FC05EDE4FE880F9800A811B8199
:10FA0000C052D1404E0D5F1D601F711F1A82C05E33
:10FA1000DE4F488359836A837B83C052D1407FC0C5
:10FA2000FA80C55CDE4FF882CB53D140C65CDE4F16
:10FA30001882CA53D1408B81C82EDD24C65CDE4FAC
:10FA400008811981CA53D140C02AD12A1A828981DA
:10FA5000BE016D5F7F4F843121F59601C05EDE4FA0
:10FA6000E880F9800A811B81C052D1400BBFF701A9
:10FA700087919691DB018C9311969C936E5F7F4FDB
:10FA8000D801C7010296A11DB11DC05EDE4F88835B
:10FA90009983AA83BB83C052D14022503040F1F6F3
:10FAA00036C0C05EDE4F288139814A815B81C052F9
:10FAB000D1400894C108D108760100E010E0089414
:10FAC000C11CD11C0894E11CF11C011D111DE20E8A
:10FAD000F31E041F151F21BDBB27A52F942F832FB5
:10FAE00082BD2F5F3F4F4F4F5F4FF89A80B5DB01CC
:10FAF0008D93BD012E153F054007510761F7C05E8C
:10FB0000DE4F288339834A835B83C052D1409601FC
:10FB10002D5F3F4FFB01108204C080EC8A8322E0FE
:10FB200030E08BE18093C6008091C00086FFFCCF5F
:10FB30008091C00080648093C000C15DDE4FF88179
:10FB4000CF52D140F093C6008091C00086FFFCCF19
:10FB50008091C00080648093C000432F3093C60022
:10FB60008091C00086FFFCCF8091C00080648093AC
:10FB7000C000922F2093C6008091C00086FFFCCF6A
:10FB80008091C00080648093C0008EE08093C600A6
:10FB90008091C00086FFFCCF8091C000806480937C
:10FBA000C00065E1C15DDE4FE880CF52D1406E25D7
:10FBB00069276427FE01319610C090819093C6009A
:10FBC0008091C00086FFFCCF31968091C000806498
:10FBD0008093C0006927215030402115310569F715
:10FBE0006093C6008091C00086FFFCCF8091C0006A
:10FBF00080648093C00085B1805885B9772081F4F6
:10FC0000C15DDE4F0881CF52D1400F5FC15DDE4F35
:10FC10000883CF52D14090E0A0E0B0E00D941AF4F8
:10FC200027982F9880E090E020ED37E0F901319798
:10FC3000F1F7019684369105C9F700008091C00064
:10FC40008D7F8093C00081E180935700E895EE2777
:10FC5000FF270994FFCF90E00D941AF497FB092E2B
:10FC600007260AD077FD04D02ED006D000201AF443
:10FC7000709561957F4F0895F6F7909581959F4F08
:10FC80000895A1E21A2EAA1BBB1BFD010DC0AA1FDD
:10FC9000BB1FEE1FFF1FA217B307E407F50720F0F5
:10FCA000A21BB30BE40BF50B661F771F881F991F70
:10FCB0001A9469F760957095809590959B01AC01B9
:10FCC000BD01CF010895AA1BBB1B51E107C0AA1FAC
:10FCD000BB1FA617B70710F0A61BB70B881F991FED
:10FCE0005A95A9F780959095BC01CD010895F99991
:10FCF000FECF92BD81BDF89A992780B50895262F31
:10FD0000F999FECF1FBA92BD81BD20BD0FB6F89400
:0EFD1000FA9AF99A0FBE01960895F894FFCF63
:040000033000E000E9
:00000001FF